{
  "contractName": "Decentragram",
  "abi": [
    {
      "anonymous": false,
      "inputs": [
        {
          "indexed": false,
          "internalType": "uint256",
          "name": "id",
          "type": "uint256"
        },
        {
          "indexed": false,
          "internalType": "string",
          "name": "linkIpfs",
          "type": "string"
        },
        {
          "indexed": false,
          "internalType": "string",
          "name": "description",
          "type": "string"
        },
        {
          "indexed": false,
          "internalType": "uint256",
          "name": "tipAmount",
          "type": "uint256"
        },
        {
          "indexed": false,
          "internalType": "address payable",
          "name": "author",
          "type": "address"
        }
      ],
      "name": "ImageCreated",
      "type": "event"
    },
    {
      "anonymous": false,
      "inputs": [
        {
          "indexed": false,
          "internalType": "uint256",
          "name": "id",
          "type": "uint256"
        },
        {
          "indexed": false,
          "internalType": "string",
          "name": "linkIpfs",
          "type": "string"
        },
        {
          "indexed": false,
          "internalType": "string",
          "name": "description",
          "type": "string"
        },
        {
          "indexed": false,
          "internalType": "uint256",
          "name": "tipAmount",
          "type": "uint256"
        },
        {
          "indexed": false,
          "internalType": "address payable",
          "name": "author",
          "type": "address"
        }
      ],
      "name": "ImageTipped",
      "type": "event"
    },
    {
      "inputs": [],
      "name": "couter",
      "outputs": [
        {
          "internalType": "uint256",
          "name": "",
          "type": "uint256"
        }
      ],
      "stateMutability": "view",
      "type": "function",
      "constant": true
    },
    {
      "inputs": [
        {
          "internalType": "uint256",
          "name": "",
          "type": "uint256"
        }
      ],
      "name": "images",
      "outputs": [
        {
          "internalType": "uint256",
          "name": "id",
          "type": "uint256"
        },
        {
          "internalType": "string",
          "name": "linkIpfs",
          "type": "string"
        },
        {
          "internalType": "string",
          "name": "description",
          "type": "string"
        },
        {
          "internalType": "uint256",
          "name": "tipAmount",
          "type": "uint256"
        },
        {
          "internalType": "address payable",
          "name": "author",
          "type": "address"
        }
      ],
      "stateMutability": "view",
      "type": "function",
      "constant": true
    },
    {
      "inputs": [],
      "name": "name",
      "outputs": [
        {
          "internalType": "string",
          "name": "",
          "type": "string"
        }
      ],
      "stateMutability": "view",
      "type": "function",
      "constant": true
    },
    {
      "inputs": [
        {
          "internalType": "string",
          "name": "_linkIpfs",
          "type": "string"
        },
        {
          "internalType": "string",
          "name": "_description",
          "type": "string"
        }
      ],
      "name": "uploadImage",
      "outputs": [],
      "stateMutability": "nonpayable",
      "type": "function"
    },
    {
      "inputs": [
        {
          "internalType": "uint256",
          "name": "_id",
          "type": "uint256"
        }
      ],
      "name": "tipImageOwner",
      "outputs": [],
      "stateMutability": "payable",
      "type": "function",
      "payable": true
    }
  ],
  "bytecode": "0x60806040526040518060400160405280600c81526020017f446563656e7472616772616d000000000000000000000000000000000000000081525060009080519060200190620000519291906200006b565b5060006001553480156200006457600080fd5b506200017f565b82805462000079906200014a565b90600052602060002090601f0160209004810192826200009d5760008555620000e9565b82601f10620000b857805160ff1916838001178555620000e9565b82800160010185558215620000e9579182015b82811115620000e8578251825591602001919060010190620000cb565b5b509050620000f89190620000fc565b5090565b5b8082111562000117576000816000905550600101620000fd565b5090565b7f4e487b7100000000000000000000000000000000000000000000000000000000600052602260045260246000fd5b600060028204905060018216806200016357607f821691505b6020821081036200017957620001786200011b565b5b50919050565b610e4c806200018f6000396000f3fe60806040526004361061004a5760003560e01c806306fdde031461004f578063765a57521461007a57806384856482146100a55780638567ade8146100e6578063a91b831414610102575b600080fd5b34801561005b57600080fd5b5061006461012b565b6040516100719190610931565b60405180910390f35b34801561008657600080fd5b5061008f6101b9565b60405161009c919061096c565b60405180910390f35b3480156100b157600080fd5b506100cc60048036038101906100c791906109c7565b6101bf565b6040516100dd959493929190610a35565b60405180910390f35b61010060048036038101906100fb91906109c7565b610325565b005b34801561010e57600080fd5b5061012960048036038101906101249190610bcb565b610655565b005b6000805461013890610c72565b80601f016020809104026020016040519081016040528092919081815260200182805461016490610c72565b80156101b15780601f10610186576101008083540402835291602001916101b1565b820191906000526020600020905b81548152906001019060200180831161019457829003601f168201915b505050505081565b60015481565b60026020528060005260406000206000915090508060000154908060010180546101e890610c72565b80601f016020809104026020016040519081016040528092919081815260200182805461021490610c72565b80156102615780601f1061023657610100808354040283529160200191610261565b820191906000526020600020905b81548152906001019060200180831161024457829003601f168201915b50505050509080600201805461027690610c72565b80601f01602080910402602001604051908101604052809291908181526020018280546102a290610c72565b80156102ef5780601f106102c4576101008083540402835291602001916102ef565b820191906000526020600020905b8154815290600101906020018083116102d257829003601f168201915b5050505050908060030154908060040160009054906101000a900473ffffffffffffffffffffffffffffffffffffffff16905085565b60008111801561033757506001548111155b61034057600080fd5b6000600260008381526020019081526020016000206040518060a00160405290816000820154815260200160018201805461037a90610c72565b80601f01602080910402602001604051908101604052809291908181526020018280546103a690610c72565b80156103f35780601f106103c8576101008083540402835291602001916103f3565b820191906000526020600020905b8154815290600101906020018083116103d657829003601f168201915b5050505050815260200160028201805461040c90610c72565b80601f016020809104026020016040519081016040528092919081815260200182805461043890610c72565b80156104855780601f1061045a57610100808354040283529160200191610485565b820191906000526020600020905b81548152906001019060200180831161046857829003601f168201915b50505050508152602001600382015481526020016004820160009054906101000a900473ffffffffffffffffffffffffffffffffffffffff1673ffffffffffffffffffffffffffffffffffffffff1673ffffffffffffffffffffffffffffffffffffffff168152505090506000816080015190508073ffffffffffffffffffffffffffffffffffffffff166108fc349081150290604051600060405180830381858888f1935050505015801561053f573d6000803e3d6000fd5b503482606001516105509190610cd2565b82606001818152505081600260008581526020019081526020016000206000820151816000015560208201518160010190805190602001906105939291906107f5565b5060408201518160020190805190602001906105b09291906107f5565b506060820151816003015560808201518160040160006101000a81548173ffffffffffffffffffffffffffffffffffffffff021916908373ffffffffffffffffffffffffffffffffffffffff1602179055509050507f1be5317bca8d3f70dc1efe89958be71bff36cdca33fc00a6423e25eb2f1d492f8383602001518460400151856060015185604051610648959493929190610a35565b60405180910390a1505050565b600082511161066357600080fd5b600081511161067157600080fd5b600073ffffffffffffffffffffffffffffffffffffffff163373ffffffffffffffffffffffffffffffffffffffff16036106aa57600080fd5b600160008154809291906106bd90610d28565b91905055506040518060a001604052806001548152602001838152602001828152602001600081526020013373ffffffffffffffffffffffffffffffffffffffff1681525060026000600154815260200190815260200160002060008201518160000155602082015181600101908051906020019061073d9291906107f5565b50604082015181600201908051906020019061075a9291906107f5565b506060820151816003015560808201518160040160006101000a81548173ffffffffffffffffffffffffffffffffffffffff021916908373ffffffffffffffffffffffffffffffffffffffff1602179055509050507fc1d8dfa99b3f84f95d3f0bc4a768addeb97b83b20aef7f9cb6729e126bafd2f960015483836000336040516107e9959493929190610db5565b60405180910390a15050565b82805461080190610c72565b90600052602060002090601f016020900481019282610823576000855561086a565b82601f1061083c57805160ff191683800117855561086a565b8280016001018555821561086a579182015b8281111561086957825182559160200191906001019061084e565b5b509050610877919061087b565b5090565b5b8082111561089457600081600090555060010161087c565b5090565b600081519050919050565b600082825260208201905092915050565b60005b838110156108d25780820151818401526020810190506108b7565b838111156108e1576000848401525b50505050565b6000601f19601f8301169050919050565b600061090382610898565b61090d81856108a3565b935061091d8185602086016108b4565b610926816108e7565b840191505092915050565b6000602082019050818103600083015261094b81846108f8565b905092915050565b6000819050919050565b61096681610953565b82525050565b6000602082019050610981600083018461095d565b92915050565b6000604051905090565b600080fd5b600080fd5b6109a481610953565b81146109af57600080fd5b50565b6000813590506109c18161099b565b92915050565b6000602082840312156109dd576109dc610991565b5b60006109eb848285016109b2565b91505092915050565b600073ffffffffffffffffffffffffffffffffffffffff82169050919050565b6000610a1f826109f4565b9050919050565b610a2f81610a14565b82525050565b600060a082019050610a4a600083018861095d565b8181036020830152610a5c81876108f8565b90508181036040830152610a7081866108f8565b9050610a7f606083018561095d565b610a8c6080830184610a26565b9695505050505050565b600080fd5b600080fd5b7f4e487b7100000000000000000000000000000000000000000000000000000000600052604160045260246000fd5b610ad8826108e7565b810181811067ffffffffffffffff82111715610af757610af6610aa0565b5b80604052505050565b6000610b0a610987565b9050610b168282610acf565b919050565b600067ffffffffffffffff821115610b3657610b35610aa0565b5b610b3f826108e7565b9050602081019050919050565b82818337600083830152505050565b6000610b6e610b6984610b1b565b610b00565b905082815260208101848484011115610b8a57610b89610a9b565b5b610b95848285610b4c565b509392505050565b600082601f830112610bb257610bb1610a96565b5b8135610bc2848260208601610b5b565b91505092915050565b60008060408385031215610be257610be1610991565b5b600083013567ffffffffffffffff811115610c0057610bff610996565b5b610c0c85828601610b9d565b925050602083013567ffffffffffffffff811115610c2d57610c2c610996565b5b610c3985828601610b9d565b9150509250929050565b7f4e487b7100000000000000000000000000000000000000000000000000000000600052602260045260246000fd5b60006002820490506001821680610c8a57607f821691505b602082108103610c9d57610c9c610c43565b5b50919050565b7f4e487b7100000000000000000000000000000000000000000000000000000000600052601160045260246000fd5b6000610cdd82610953565b9150610ce883610953565b9250827fffffffffffffffffffffffffffffffffffffffffffffffffffffffffffffffff03821115610d1d57610d1c610ca3565b5b828201905092915050565b6000610d3382610953565b91507fffffffffffffffffffffffffffffffffffffffffffffffffffffffffffffffff8203610d6557610d64610ca3565b5b600182019050919050565b6000819050919050565b6000819050919050565b6000610d9f610d9a610d9584610d70565b610d7a565b610953565b9050919050565b610daf81610d84565b82525050565b600060a082019050610dca600083018861095d565b8181036020830152610ddc81876108f8565b90508181036040830152610df081866108f8565b9050610dff6060830185610da6565b610e0c6080830184610a26565b969550505050505056fea264697066735822122026577648286e2980a2c63214420c5f98daa24289ccabbbfea11e2430c0ab311d64736f6c634300080d0033",
  "immutableReferences": {},
  "source": "// SPDX-License-Identifier: UNLICENSED\npragma solidity 0.8.13;\n\ncontract Decentragram {\n    string public name = \"Decentragram\";\n    uint256 public couter = 0;\n    mapping(uint256 => Image) public images;\n\n    struct Image {\n        uint256 id;\n        string linkIpfs;\n        string description;\n        uint256 tipAmount;\n        address payable author;\n    }\n\n    event ImageCreated(\n        uint256 id,\n        string linkIpfs,\n        string description,\n        uint256 tipAmount,\n        address payable author\n    );\n\n    event ImageTipped(\n        uint256 id,\n        string linkIpfs,\n        string description,\n        uint256 tipAmount,\n        address payable author\n    );\n\n    // create image\n    function uploadImage(string memory _linkIpfs, string memory _description)\n        public\n    {\n        require(bytes(_linkIpfs).length > 0);\n        require(bytes(_description).length > 0);\n        require(msg.sender != address(0x0));\n\n        couter++;\n        images[couter] = Image(\n            couter,\n            _linkIpfs,\n            _description,\n            0,\n            payable(msg.sender)\n        );\n\n        emit ImageCreated(\n            couter,\n            _linkIpfs,\n            _description,\n            0,\n            payable(msg.sender)\n        );\n    }\n\n    // tip images\n    function tipImageOwner(uint256 _id) public payable {\n        require(_id > 0 && _id <= couter);\n\n        Image memory _image = images[_id];\n        address payable _author = _image.author;\n        _author.transfer(msg.value);\n        _image.tipAmount = _image.tipAmount + msg.value;\n\n        images[_id] = _image;\n        emit ImageTipped(\n            _id,\n            _image.linkIpfs,\n            _image.description,\n            _image.tipAmount,\n            _author\n        );\n    }\n}\n",
  "sourcePath": "C:\\Users\\vuanh\\Desktop\\blockchain\\decentragram\\src\\contracts\\Decentragram.sol",
  "compiler": {
    "name": "solc",
    "version": "0.8.13+commit.abaa5c0e.Emscripten.clang"
  },
  "schemaVersion": "3.4.3",
  "updatedAt": "2022-03-30T14:31:25.677Z",
  "networkType": "ethereum",
  "devdoc": {
    "kind": "dev",
    "methods": {},
    "version": 1
  },
  "userdoc": {
    "kind": "user",
    "methods": {},
    "version": 1
  }
}